:030000000200BF3C
:0C00BF00787FE4F6D8FD75812002010670
:0F002600C10001140001130044007A0000000023
:06027C00120003D2AF22C4
:08026C0012027C1201D580FE94
:03001B0002014B94
:10014B00C0E0C0F0C083C082C0D075D008758B00F2
:10015B00758D4C0513E51364147021F51390007A1B
:10016B00E0FCA3E0FDA3E0FEA3E02401FFE43EFEE0
:10017B00E43DFDE43CFC90007A12023DD0D0D082ED
:07018B00D083D0F0D0E03278
:0300230002019245
:10019200C0E0C083C082C0D075D008309825C2AC00
:1001A200AF99EF640D6007D2007514008011AF148F
:1001B2000514747E2FF582E43400F583E599F0C2CC
:1001C20098D2AC309904C299C201D0D0D082D083E7
:0301D200D0E03248
:100035005E00190D0A202E2E2E2020202E2E2E0D8C
:100045000A0D0A205541525420696E6974204F4BA0
:10005500005700370D0A2053797374656D20426F80
:100065006F74204E6F77202E2E2E00602C004E0DC3
:100075000A2053797374656D2054696D6520426F4C
:100085006F74204E6F77202E2E2E0D0A2053546943
:100095006D6520696E6974204F4B005900000D0A8B
:1000A50020557365724053544331324335413630E0
:0700B50053322F74232000D9
:1001D5007B017A0079191201FF7B017A00793712C8
:1001E50001FF1202497B017A00794E1201FF7B0162
:0A01F5007A0079001201FF02025D9A
:0F025D0030000B7B017A00797E1201FFC2002274
:10024900538EBF53890F438910E4F58B758D4CC2CA
:040259008FD28E2290
:0200BC00C10180
:1000030053877F759850438E04759CDB438E014361
:050013008E10D2AC22AA
:080274002001FD8F99D2012247
:1001FF008B108A118912AB10AA11A9121202246056
:10020F00130512E5127002051114F9120224FF12E0
:05021F00027480E222E0
:1000CB0002026CE493A3F8E493A34003F68001F2DD
:1000DB0008DFF48029E493A3F85407240CC8C33336
:1000EB00C4540F4420C8834004F456800146F6DF05
:1000FB00E4800B0102040810204080900026E47E6F
:10010B00019360BCA3FF543F30E509541FFEE493F9
:10011B00A360010ECF54C025E060A840B8E493A3C0
:10012B00FAE493A3F8E493A3C8C582C8CAC583CAEB
:10013B00F0A3C8C582C8CAC583CADFE9DEE780BEA3
:0100BE000041
:10022400BB010689828A83E0225002E722BBFE02D8
:09023400E32289828A83E493220B
:0C023D00ECF0A3EDF0A3EEF0A3EFF02234
:00000001FF
