:030000000200CE2D
:0C00CE00787FE4F6D8FD75812002011552
:0F002600C1000114000113004400880000000015
:06028B00120003D2AF22B5
:08027B0012028B1201E480FE67
:03001B0002015A85
:10015A00C0E0C0F0C083C082C0D075D008758B00E3
:10016A00758D4C0513E51364147021F513900088FE
:10017A00E0FCA3E0FDA3E0FEA3E02401FFE43EFED1
:10018A00E43DFDE43CFC90008812024CD0D0D082C1
:07019A00D083D0F0D0E03269
:030023000201A136
:1001A100C0E0C083C082C0D075D008309825C2ACF1
:1001B100AF99EF640D6007D2007514008011AF1480
:1001C1000514748C2FF582E43400F583E599F0C2AF
:1001D10098D2AC309904C299C201D0D0D082D083D8
:0301E100D0E03239
:100035006024001B2F722F6E202E2E2E2020202EA6
:100045002E2E2F722F6E2F722F6E20554152542057
:10005500696E6974204F4B0059003F2F722F6E2037
:1000650053797374656D20426F6F74204E6F7720DE
:100075002E2E2E00603000582F722F6E205379736C
:1000850074656D2054696D6520426F6F74204E6FE5
:1000950077202E2E2E2F722F6E205354696D6520DA
:1000A500696E6974204F4B005B00002F722F6E2024
:1000B500557365724053544331324335413630539D
:0600C500322F742320001D
:1001E4007B017A00791B12020E7B017A00793F129F
:1001F400020E1202587B017A00795812020E7B011A
:0A0204007A00790012020E02026C6B
:0F026C0030000B7B017A00798C12020EC2002247
:10025800538EBF53890F438910E4F58B758D4CC2BB
:040268008FD28E2281
:0200CB00C10171
:1000030053877F759850438E04759CDB438E014361
:050013008E10D2AC22AA
:080283002001FD8F99D2012238
:10020E008B108A118912AB10AA11A9121202336037
:10021E00130512E5127002051114F9120233FF12C2
:05022E00028380E222C2
:1000DA0002027BE493A3F8E493A34003F68001F2BF
:1000EA0008DFF48029E493A3F85407240CC8C33327
:1000FA00C4540F4420C8834004F456800146F6DFF6
:10010A00E4800B0102040810204080900026E47E5F
:10011A00019360BCA3FF543F30E509541FFEE493EA
:10012A00A360010ECF54C025E060A840B8E493A3B1
:10013A00FAE493A3F8E493A3C8C582C8CAC583CADC
:10014A00F0A3C8C582C8CAC583CADFE9DEE780BE94
:0100CD000032
:10023300BB010689828A83E0225002E722BBFE02C9
:09024300E32289828A83E49322FC
:0C024C00ECF0A3EDF0A3EEF0A3EFF02225
:00000001FF
